{
  "contractName": "Counter",
  "abi": [
    {
      "inputs": [
        {
          "internalType": "uint256",
          "name": "_count",
          "type": "uint256"
        }
      ],
      "stateMutability": "nonpayable",
      "type": "constructor"
    },
    {
      "inputs": [],
      "name": "count",
      "outputs": [
        {
          "internalType": "uint256",
          "name": "",
          "type": "uint256"
        }
      ],
      "stateMutability": "view",
      "type": "function",
      "constant": true
    },
    {
      "inputs": [],
      "name": "add",
      "outputs": [],
      "stateMutability": "nonpayable",
      "type": "function"
    }
  ],
  "bytecode": "0x608060405234801561001057600080fd5b5060405161021a38038061021a8339818101604052810190610032919061007a565b80600081905550506100a7565b600080fd5b6000819050919050565b61005781610044565b811461006257600080fd5b50565b6000815190506100748161004e565b92915050565b6000602082840312156100905761008f61003f565b5b600061009e84828501610065565b91505092915050565b610164806100b66000396000f3fe608060405234801561001057600080fd5b50600436106100365760003560e01c806306661abd1461003b5780634f2be91f14610059575b600080fd5b610043610063565b604051610050919061009b565b60405180910390f35b610061610069565b005b60005481565b60008081548092919061007b906100e5565b9190505550565b6000819050919050565b61009581610082565b82525050565b60006020820190506100b0600083018461008c565b92915050565b7f4e487b7100000000000000000000000000000000000000000000000000000000600052601160045260246000fd5b60006100f082610082565b91507fffffffffffffffffffffffffffffffffffffffffffffffffffffffffffffffff821415610123576101226100b6565b5b60018201905091905056fea26469706673582212206d3cb497c6d4d3fe3e2b0647bfc025dbb0f7e108f576bca50439a9386dcb764864736f6c634300080b0033",
  "immutableReferences": {},
  "source": "// SPDX-License-Identifier: MIT\n\npragma solidity ^0.8.0;\n\ncontract Counter {\n\tuint256 public count;\n\n\tconstructor(uint256 _count) {\n\t\tcount = _count;\n\t}\n\n\tfunction add() public {\n\t\tcount++;\n\t}\n}\n",
  "sourcePath": "/Users/zhuyanbin/coin-sci/okx/w1/contracts/Counter.sol",
  "compiler": {
    "name": "solc",
    "version": "0.8.11+commit.d7f03943.Emscripten.clang"
  },
  "schemaVersion": "3.4.5",
  "updatedAt": "2022-02-23T13:01:31.778Z",
  "networkType": "ethereum",
  "devdoc": {
    "kind": "dev",
    "methods": {},
    "version": 1
  },
  "userdoc": {
    "kind": "user",
    "methods": {},
    "version": 1
  }
}